{
  "contractName": "Article",
  "abi": [
    {
      "constant": true,
      "inputs": [],
      "name": "body",
      "outputs": [
        {
          "name": "",
          "type": "string"
        }
      ],
      "payable": false,
      "stateMutability": "view",
      "type": "function"
    },
    {
      "constant": true,
      "inputs": [],
      "name": "title",
      "outputs": [
        {
          "name": "",
          "type": "string"
        }
      ],
      "payable": false,
      "stateMutability": "view",
      "type": "function"
    },
    {
      "constant": true,
      "inputs": [],
      "name": "author",
      "outputs": [
        {
          "name": "",
          "type": "address"
        }
      ],
      "payable": false,
      "stateMutability": "view",
      "type": "function"
    },
    {
      "inputs": [
        {
          "name": "_title",
          "type": "string"
        },
        {
          "name": "_body",
          "type": "string"
        }
      ],
      "payable": false,
      "stateMutability": "nonpayable",
      "type": "constructor"
    }
  ],
  "bytecode": "0x608060405234801561001057600080fd5b506040516104c83803806104c8833981018060405281019080805182019291906020018051820192919050505081600090805190602001906100539291906100b3565b50806001908051906020019061006a9291906100b3565b5033600260006101000a81548173ffffffffffffffffffffffffffffffffffffffff021916908373ffffffffffffffffffffffffffffffffffffffff1602179055505050610158565b828054600181600116156101000203166002900490600052602060002090601f016020900481019282601f106100f457805160ff1916838001178555610122565b82800160010185558215610122579182015b82811115610121578251825591602001919060010190610106565b5b50905061012f9190610133565b5090565b61015591905b80821115610151576000816000905550600101610139565b5090565b90565b610361806101676000396000f300608060405260043610610057576000357c0100000000000000000000000000000000000000000000000000000000900463ffffffff168063364497e41461005c5780634a79d50c146100ec578063a6c3e6b91461017c575b600080fd5b34801561006857600080fd5b506100716101d3565b6040518080602001828103825283818151815260200191508051906020019080838360005b838110156100b1578082015181840152602081019050610096565b50505050905090810190601f1680156100de5780820380516001836020036101000a031916815260200191505b509250505060405180910390f35b3480156100f857600080fd5b50610101610271565b6040518080602001828103825283818151815260200191508051906020019080838360005b83811015610141578082015181840152602081019050610126565b50505050905090810190601f16801561016e5780820380516001836020036101000a031916815260200191505b509250505060405180910390f35b34801561018857600080fd5b5061019161030f565b604051808273ffffffffffffffffffffffffffffffffffffffff1673ffffffffffffffffffffffffffffffffffffffff16815260200191505060405180910390f35b60018054600181600116156101000203166002900480601f0160208091040260200160405190810160405280929190818152602001828054600181600116156101000203166002900480156102695780601f1061023e57610100808354040283529160200191610269565b820191906000526020600020905b81548152906001019060200180831161024c57829003601f168201915b505050505081565b60008054600181600116156101000203166002900480601f0160208091040260200160405190810160405280929190818152602001828054600181600116156101000203166002900480156103075780601f106102dc57610100808354040283529160200191610307565b820191906000526020600020905b8154815290600101906020018083116102ea57829003601f168201915b505050505081565b600260009054906101000a900473ffffffffffffffffffffffffffffffffffffffff16815600a165627a7a723058205d22b526c8e1e800cc946556429da0b1255a11da9f4b7c063f3eec51a0b8a1830029",
  "source": "pragma solidity ^0.4.24;\n\ncontract Article {\n  string  public title;\n  string  public body;\n  address public author;\n\n  constructor(string _title, string _body) public {\n    title = _title;\n    body = _body;\n    author = msg.sender;\n  }\n}\n",
  "sourcePath": "/home/ryan/Projects/decentralized_medium/contracts/Article.sol",
  "compiler": {
    "name": "solc",
    "version": "0.4.24+commit.e67f0147.Emscripten.clang"
  },
  "schemaVersion": "2.0.1",
  "updatedAt": "2018-08-19T20:45:00.800Z"
}