{
  "contractName": "Medium",
  "abi": [
    {
      "constant": true,
      "inputs": [
        {
          "name": "",
          "type": "uint256"
        }
      ],
      "name": "articleIds",
      "outputs": [
        {
          "name": "",
          "type": "uint256"
        }
      ],
      "payable": false,
      "stateMutability": "view",
      "type": "function"
    },
    {
      "constant": true,
      "inputs": [
        {
          "name": "",
          "type": "uint256"
        }
      ],
      "name": "articleAddresses",
      "outputs": [
        {
          "name": "",
          "type": "address"
        }
      ],
      "payable": false,
      "stateMutability": "view",
      "type": "function"
    },
    {
      "anonymous": false,
      "inputs": [
        {
          "indexed": false,
          "name": "articleId",
          "type": "uint256"
        },
        {
          "indexed": false,
          "name": "author",
          "type": "address"
        }
      ],
      "name": "posted",
      "type": "event"
    },
    {
      "constant": true,
      "inputs": [],
      "name": "getArticleIds",
      "outputs": [
        {
          "name": "",
          "type": "uint256[]"
        }
      ],
      "payable": false,
      "stateMutability": "view",
      "type": "function"
    },
    {
      "constant": false,
      "inputs": [
        {
          "name": "title",
          "type": "string"
        },
        {
          "name": "body",
          "type": "string"
        },
        {
          "name": "authorName",
          "type": "string"
        }
      ],
      "name": "post",
      "outputs": [],
      "payable": false,
      "stateMutability": "nonpayable",
      "type": "function"
    },
    {
      "constant": false,
      "inputs": [
        {
          "name": "id",
          "type": "uint256"
        }
      ],
      "name": "upVote",
      "outputs": [],
      "payable": true,
      "stateMutability": "payable",
      "type": "function"
    }
  ],
  "bytecode": "0x6080604052600060025534801561001557600080fd5b506112c3806100256000396000f30060806040526004361061006d576000357c0100000000000000000000000000000000000000000000000000000000900463ffffffff1680632de6f5b514610072578063e7ff5230146100b3578063ec859db514610120578063eca94dec14610140578063f461871e14610235575b600080fd5b34801561007e57600080fd5b5061009d600480360381019080803590602001909291905050506102a1565b6040518082815260200191505060405180910390f35b3480156100bf57600080fd5b506100de600480360381019080803590602001909291905050506102c4565b604051808273ffffffffffffffffffffffffffffffffffffffff1673ffffffffffffffffffffffffffffffffffffffff16815260200191505060405180910390f35b61013e600480360381019080803590602001909291905050506102f7565b005b34801561014c57600080fd5b50610233600480360381019080803590602001908201803590602001908080601f0160208091040260200160405190810160405280939291908181526020018383808284378201915050505050509192919290803590602001908201803590602001908080601f0160208091040260200160405190810160405280939291908181526020018383808284378201915050505050509192919290803590602001908201803590602001908080601f01602080910402602001604051908101604052809392919081815260200183838082843782019150505050505091929192905050506104bb565b005b34801561024157600080fd5b5061024a61073e565b6040518080602001828103825283818151815260200191508051906020019060200280838360005b8381101561028d578082015181840152602081019050610272565b505050509050019250505060405180910390f35b6001818154811015156102b057fe5b906000526020600020016000915090505481565b60006020528060005260406000206000915054906101000a900473ffffffffffffffffffffffffffffffffffffffff1681565b6000806000662386f26fc100003481151561030e57fe5b04925060008085815260200190815260200160002060009054906101000a900473ffffffffffffffffffffffffffffffffffffffff1691508190508073ffffffffffffffffffffffffffffffffffffffff1663ec859db5846040518263ffffffff167c010000000000000000000000000000000000000000000000000000000002815260040180828152602001915050600060405180830381600087803b1580156103b857600080fd5b505af11580156103cc573d6000803e3d6000fd5b505050508073ffffffffffffffffffffffffffffffffffffffff1663a6c3e6b96040518163ffffffff167c0100000000000000000000000000000000000000000000000000000000028152600401602060405180830381600087803b15801561043457600080fd5b505af1158015610448573d6000803e3d6000fd5b505050506040513d602081101561045e57600080fd5b810190808051906020019092919050505073ffffffffffffffffffffffffffffffffffffffff166108fc349081150290604051600060405180830381858888f193505050501580156104b4573d6000803e3d6000fd5b5050505050565b60008383836002546104cb610796565b80806020018060200180602001858152602001848103845288818151815260200191508051906020019080838360005b838110156105165780820151818401526020810190506104fb565b50505050905090810190601f1680156105435780820380516001836020036101000a031916815260200191505b50848103835287818151815260200191508051906020019080838360005b8381101561057c578082015181840152602081019050610561565b50505050905090810190601f1680156105a95780820380516001836020036101000a031916815260200191505b50848103825286818151815260200191508051906020019080838360005b838110156105e25780820151818401526020810190506105c7565b50505050905090810190601f16801561060f5780820380516001836020036101000a031916815260200191505b50975050505050505050604051809103906000f080158015610635573d6000803e3d6000fd5b50905080600080600254815260200190815260200160002060006101000a81548173ffffffffffffffffffffffffffffffffffffffff021916908373ffffffffffffffffffffffffffffffffffffffff1602179055507f5f647542d821b2222eefeaa5213d4c6f27780a0bdfbe0bcee5294fba5d8509c960025433604051808381526020018273ffffffffffffffffffffffffffffffffffffffff1673ffffffffffffffffffffffffffffffffffffffff1681526020019250505060405180910390a16001600254908060018154018082558091505090600182039060005260206000200160009091929091909150555060026000815480929190600101919050555050505050565b6060600180548060200260200160405190810160405280929190818152602001828054801561078c57602002820191906000526020600020905b815481526020019060010190808311610778575b5050505050905090565b604051610af1806107a7833901905600608060405234801561001057600080fd5b50604051610af1380380610af183398101806040528101908080518201929190602001805182019291906020018051820192919060200180519060200190929190505050836000908051906020019061006a929190610133565b508260019080519060200190610081929190610133565b508160029080519060200190610098929190610133565b5080600381905550600060048190555032600560006101000a81548173ffffffffffffffffffffffffffffffffffffffff021916908373ffffffffffffffffffffffffffffffffffffffff16021790555033600660006101000a81548173ffffffffffffffffffffffffffffffffffffffff021916908373ffffffffffffffffffffffffffffffffffffffff160217905550505050506101d8565b828054600181600116156101000203166002900490600052602060002090601f016020900481019282601f1061017457805160ff19168380011785556101a2565b828001600101855582156101a2579182015b828111156101a1578251825591602001919060010190610186565b5b5090506101af91906101b3565b5090565b6101d591905b808211156101d15760008160009055506001016101b9565b5090565b90565b61090a806101e76000396000f300608060405260043610610099576000357c0100000000000000000000000000000000000000000000000000000000900463ffffffff1680631be6dd641461009e578063364497e4146100c95780634a79d50c146101595780636a64aabb146101e95780636fabead91461027957806383197ef014610328578063a6c3e6b91461033f578063af640d0f14610396578063ec859db5146103c1575b600080fd5b3480156100aa57600080fd5b506100b36103ee565b6040518082815260200191505060405180910390f35b3480156100d557600080fd5b506100de6103f4565b6040518080602001828103825283818151815260200191508051906020019080838360005b8381101561011e578082015181840152602081019050610103565b50505050905090810190601f16801561014b5780820380516001836020036101000a031916815260200191505b509250505060405180910390f35b34801561016557600080fd5b5061016e610492565b6040518080602001828103825283818151815260200191508051906020019080838360005b838110156101ae578082015181840152602081019050610193565b50505050905090810190601f1680156101db5780820380516001836020036101000a031916815260200191505b509250505060405180910390f35b3480156101f557600080fd5b506101fe610530565b6040518080602001828103825283818151815260200191508051906020019080838360005b8381101561023e578082015181840152602081019050610223565b50505050905090810190601f16801561026b5780820380516001836020036101000a031916815260200191505b509250505060405180910390f35b34801561028557600080fd5b50610326600480360381019080803590602001908201803590602001908080601f0160208091040260200160405190810160405280939291908181526020018383808284378201915050505050509192919290803590602001908201803590602001908080601f01602080910402602001604051908101604052809392919081815260200183838082843782019150505050505091929192905050506105ce565b005b34801561033457600080fd5b5061033d610695565b005b34801561034b57600080fd5b50610354610765565b604051808273ffffffffffffffffffffffffffffffffffffffff1673ffffffffffffffffffffffffffffffffffffffff16815260200191505060405180910390f35b3480156103a257600080fd5b506103ab61078b565b6040518082815260200191505060405180910390f35b3480156103cd57600080fd5b506103ec60048036038101908080359060200190929190505050610791565b005b60045481565b60018054600181600116156101000203166002900480601f01602080910402602001604051908101604052809291908181526020018280546001816001161561010002031660029004801561048a5780601f1061045f5761010080835404028352916020019161048a565b820191906000526020600020905b81548152906001019060200180831161046d57829003601f168201915b505050505081565b60008054600181600116156101000203166002900480601f0160208091040260200160405190810160405280929190818152602001828054600181600116156101000203166002900480156105285780601f106104fd57610100808354040283529160200191610528565b820191906000526020600020905b81548152906001019060200180831161050b57829003601f168201915b505050505081565b60028054600181600116156101000203166002900480601f0160208091040260200160405190810160405280929190818152602001828054600181600116156101000203166002900480156105c65780601f1061059b576101008083540402835291602001916105c6565b820191906000526020600020905b8154815290600101906020018083116105a957829003601f168201915b505050505081565b600560009054906101000a900473ffffffffffffffffffffffffffffffffffffffff1673ffffffffffffffffffffffffffffffffffffffff163273ffffffffffffffffffffffffffffffffffffffff1614151561062a57600080fd5b8160009080519060200190610640929190610839565b508060019080519060200190610657929190610839565b507fbbfad2564388b088ee5992e661e509567fb0d8a35a9f8c410032374b57f0169a6003546040518082815260200191505060405180910390a15050565b600560009054906101000a900473ffffffffffffffffffffffffffffffffffffffff1673ffffffffffffffffffffffffffffffffffffffff163273ffffffffffffffffffffffffffffffffffffffff161415156106f157600080fd5b7f3f20f7f8d003d03819949ccf51a3e83de9cece583360970bfd1824d5ebcc01536003546040518082815260200191505060405180910390a1600560009054906101000a900473ffffffffffffffffffffffffffffffffffffffff1673ffffffffffffffffffffffffffffffffffffffff16ff5b600560009054906101000a900473ffffffffffffffffffffffffffffffffffffffff1681565b60035481565b600660009054906101000a900473ffffffffffffffffffffffffffffffffffffffff1673ffffffffffffffffffffffffffffffffffffffff163373ffffffffffffffffffffffffffffffffffffffff161415156107ed57600080fd5b7fbbfad2564388b088ee5992e661e509567fb0d8a35a9f8c410032374b57f0169a6003546040518082815260200191505060405180910390a18060046000828254019250508190555050565b828054600181600116156101000203166002900490600052602060002090601f016020900481019282601f1061087a57805160ff19168380011785556108a8565b828001600101855582156108a8579182015b828111156108a757825182559160200191906001019061088c565b5b5090506108b591906108b9565b5090565b6108db91905b808211156108d75760008160009055506001016108bf565b5090565b905600a165627a7a72305820379817d304ace39f547ee00546187abc4d04231d1cdb21b2afd98a20f3a6b7360029a165627a7a72305820f10bf3b16d9d3eb9bff13368a09f792b70d487cfd1d1c674006889f24a17cee20029",
  "source": "pragma solidity ^0.4.24;\n\nimport \"./Article.sol\";\n\ncontract Medium {\n  mapping (uint => address) public articleAddresses;\n  uint[] public articleIds;\n  uint nextId = 0;\n\n  event posted(uint articleId, address author);\n\n  function getArticleIds() public view returns(uint[]) {\n    return articleIds;\n  }\n\n  function post(string title, string body, string authorName) public {\n    address newArticle = new Article(title, body, authorName, nextId);\n    articleAddresses[nextId] = address(newArticle);\n    emit posted(nextId, msg.sender);\n    articleIds.push(nextId);\n    nextId++;\n  }\n\n  function upVote(uint id) public payable {\n    uint points = msg.value / 10000000000000000;\n    address articleAddress = articleAddresses[id];\n    Article article = Article(articleAddress);\n    article.upVote(points);\n    article.author().transfer(msg.value);\n  }\n}\n",
  "sourcePath": "/home/ryan/Projects/decentralized_medium/contracts/Medium.sol",
  "compiler": {
    "name": "solc",
    "version": "0.4.24+commit.e67f0147.Emscripten.clang"
  },
  "schemaVersion": "2.0.1",
  "updatedAt": "2018-08-24T20:17:53.764Z"
}