{
  "contractName": "Medium",
  "abi": [
    {
      "constant": true,
      "inputs": [
        {
          "name": "",
          "type": "uint256"
        }
      ],
      "name": "articleAddressesByPoints",
      "outputs": [
        {
          "name": "",
          "type": "address"
        }
      ],
      "payable": false,
      "stateMutability": "view",
      "type": "function"
    },
    {
      "constant": true,
      "inputs": [],
      "name": "stopped",
      "outputs": [
        {
          "name": "",
          "type": "bool"
        }
      ],
      "payable": false,
      "stateMutability": "view",
      "type": "function"
    },
    {
      "constant": true,
      "inputs": [
        {
          "name": "",
          "type": "uint256"
        }
      ],
      "name": "articleIdIndex",
      "outputs": [
        {
          "name": "",
          "type": "uint256"
        }
      ],
      "payable": false,
      "stateMutability": "view",
      "type": "function"
    },
    {
      "inputs": [],
      "payable": false,
      "stateMutability": "nonpayable",
      "type": "constructor"
    },
    {
      "anonymous": false,
      "inputs": [
        {
          "indexed": false,
          "name": "articleId",
          "type": "uint256"
        },
        {
          "indexed": false,
          "name": "author",
          "type": "address"
        }
      ],
      "name": "posted",
      "type": "event"
    },
    {
      "constant": true,
      "inputs": [
        {
          "name": "id",
          "type": "uint256"
        }
      ],
      "name": "getArticleFromId",
      "outputs": [
        {
          "name": "",
          "type": "address"
        }
      ],
      "payable": false,
      "stateMutability": "view",
      "type": "function"
    },
    {
      "constant": true,
      "inputs": [
        {
          "name": "n",
          "type": "uint256"
        }
      ],
      "name": "getNArticleAddresses",
      "outputs": [
        {
          "name": "",
          "type": "address[]"
        }
      ],
      "payable": false,
      "stateMutability": "view",
      "type": "function"
    },
    {
      "constant": true,
      "inputs": [],
      "name": "getArticleAddresses",
      "outputs": [
        {
          "name": "",
          "type": "address[]"
        }
      ],
      "payable": false,
      "stateMutability": "view",
      "type": "function"
    },
    {
      "constant": false,
      "inputs": [
        {
          "name": "title",
          "type": "string"
        },
        {
          "name": "body",
          "type": "string"
        },
        {
          "name": "authorName",
          "type": "string"
        }
      ],
      "name": "post",
      "outputs": [],
      "payable": false,
      "stateMutability": "nonpayable",
      "type": "function"
    },
    {
      "constant": false,
      "inputs": [
        {
          "name": "id",
          "type": "uint256"
        }
      ],
      "name": "upVote",
      "outputs": [],
      "payable": true,
      "stateMutability": "payable",
      "type": "function"
    },
    {
      "constant": false,
      "inputs": [
        {
          "name": "id",
          "type": "uint256"
        }
      ],
      "name": "deleteArticle",
      "outputs": [],
      "payable": false,
      "stateMutability": "nonpayable",
      "type": "function"
    },
    {
      "constant": false,
      "inputs": [
        {
          "name": "newAdmin",
          "type": "address"
        }
      ],
      "name": "addAdmin",
      "outputs": [],
      "payable": false,
      "stateMutability": "nonpayable",
      "type": "function"
    },
    {
      "constant": false,
      "inputs": [
        {
          "name": "_stopped",
          "type": "bool"
        }
      ],
      "name": "setBreaker",
      "outputs": [],
      "payable": false,
      "stateMutability": "nonpayable",
      "type": "function"
    }
  ],
  "bytecode": "0x608060405260008060006101000a81548160ff021916908315150217905550600060035534801561002f57600080fd5b506001600460003373ffffffffffffffffffffffffffffffffffffffff1673ffffffffffffffffffffffffffffffffffffffff16815260200190815260200160002060006101000a81548160ff021916908315150217905550611fa9806100976000396000f300608060405260043610620000bb576000357c0100000000000000000000000000000000000000000000000000000000900463ffffffff16806328e5725a14620000c0578063496f00e51462000131578063498de8b314620001b85780634b77aefd14620001e85780635c0aeb0e146200025857806370480275146200028a57806375f12b2114620002d0578063c62de41c1462000302578063d4c903ee1462000346578063ec859db514620003b6578063eca94dec14620003d8575b600080fd5b348015620000cd57600080fd5b50620000d8620004d0565b6040518080602001828103825283818151815260200191508051906020019060200280838360005b838110156200011d57808201518184015260208101905062000100565b505050509050019250505060405180910390f35b3480156200013e57600080fd5b506200015f6004803603810190808035906020019092919050505062000560565b6040518080602001828103825283818151815260200191508051906020019060200280838360005b83811015620001a457808201518184015260208101905062000187565b505050509050019250505060405180910390f35b348015620001c557600080fd5b50620001e66004803603810190808035906020019092919050505062000665565b005b348015620001f557600080fd5b50620002166004803603810190808035906020019092919050505062000930565b604051808273ffffffffffffffffffffffffffffffffffffffff1673ffffffffffffffffffffffffffffffffffffffff16815260200191505060405180910390f35b3480156200026557600080fd5b50620002886004803603810190808035151590602001909291905050506200096f565b005b3480156200029757600080fd5b50620002ce600480360381019080803573ffffffffffffffffffffffffffffffffffffffff169060200190929190505050620009e4565b005b348015620002dd57600080fd5b50620002e862000a98565b604051808215151515815260200191505060405180910390f35b3480156200030f57600080fd5b50620003306004803603810190808035906020019092919050505062000aaa565b6040518082815260200191505060405180910390f35b3480156200035357600080fd5b50620003746004803603810190808035906020019092919050505062000ac2565b604051808273ffffffffffffffffffffffffffffffffffffffff1673ffffffffffffffffffffffffffffffffffffffff16815260200191505060405180910390f35b620003d66004803603810190808035906020019092919050505062000b19565b005b348015620003e557600080fd5b50620004ce600480360381019080803590602001908201803590602001908080601f0160208091040260200160405190810160405280939291908181526020018383808284378201915050505050509192919290803590602001908201803590602001908080601f0160208091040260200160405190810160405280939291908181526020018383808284378201915050505050509192919290803590602001908201803590602001908080601f016020809104026020016040519081016040528093929190818152602001838380828437820191505050505050919291929050505062001116565b005b606060028054806020026020016040519081016040528092919081815260200182805480156200055657602002820191906000526020600020905b8160009054906101000a900473ffffffffffffffffffffffffffffffffffffffff1673ffffffffffffffffffffffffffffffffffffffff16815260200190600101908083116200050b575b5050505050905090565b606060006060600060028054905085116200057c578462000583565b6002805490505b925082604051908082528060200260200182016040528015620005b55781602001602082028038833980820191505090505b509150600090505b828110156200065a57600281815481101515620005d657fe5b9060005260206000200160009054906101000a900473ffffffffffffffffffffffffffffffffffffffff1682828151811015156200061057fe5b9060200190602002019073ffffffffffffffffffffffffffffffffffffffff16908173ffffffffffffffffffffffffffffffffffffffff16815250508080600101915050620005bd565b819350505050919050565b600080826000620006768262000ac2565b90503373ffffffffffffffffffffffffffffffffffffffff168173ffffffffffffffffffffffffffffffffffffffff1663a6c3e6b96040518163ffffffff167c0100000000000000000000000000000000000000000000000000000000028152600401602060405180830381600087803b158015620006f457600080fd5b505af115801562000709573d6000803e3d6000fd5b505050506040513d60208110156200072057600080fd5b810190808051906020019092919050505073ffffffffffffffffffffffffffffffffffffffff161415156200075457600080fd5b6200075f8562000ac2565b93508373ffffffffffffffffffffffffffffffffffffffff166383197ef06040518163ffffffff167c0100000000000000000000000000000000000000000000000000000000028152600401600060405180830381600087803b158015620007c657600080fd5b505af1158015620007db573d6000803e3d6000fd5b50505050600260016000878152602001908152602001600020548154811015156200080257fe5b9060005260206000200160006101000a81549073ffffffffffffffffffffffffffffffffffffffff02191690556001806000878152602001908152602001600020540192505b600280549050831015620008fa576002838154811015156200086657fe5b9060005260206000200160009054906101000a900473ffffffffffffffffffffffffffffffffffffffff16600260018503815481101515620008a457fe5b9060005260206000200160006101000a81548173ffffffffffffffffffffffffffffffffffffffff021916908373ffffffffffffffffffffffffffffffffffffffff160217905550828060010193505062000848565b6002805480919060019003620009119190620013c8565b5060016000868152602001908152602001600020600090555050505050565b6002818154811015156200094057fe5b906000526020600020016000915054906101000a900473ffffffffffffffffffffffffffffffffffffffff1681565b600460003373ffffffffffffffffffffffffffffffffffffffff1673ffffffffffffffffffffffffffffffffffffffff16815260200190815260200160002060009054906101000a900460ff161515620009c857600080fd5b806000806101000a81548160ff02191690831515021790555050565b600460003373ffffffffffffffffffffffffffffffffffffffff1673ffffffffffffffffffffffffffffffffffffffff16815260200190815260200160002060009054906101000a900460ff16151562000a3d57600080fd5b6001600460008373ffffffffffffffffffffffffffffffffffffffff1673ffffffffffffffffffffffffffffffffffffffff16815260200190815260200160002060006101000a81548160ff02191690831515021790555050565b6000809054906101000a900460ff1681565b60016020528060005260406000206000915090505481565b60006002600160008481526020019081526020016000205481548110151562000ae757fe5b9060005260206000200160009054906101000a900473ffffffffffffffffffffffffffffffffffffffff169050919050565b60008060008060008060009054906101000a900460ff1615151562000b3d57600080fd5b662386f26fc100003481151562000b5057fe5b04945062000b5e8662000ac2565b93508373ffffffffffffffffffffffffffffffffffffffff1663ec859db5866040518263ffffffff167c010000000000000000000000000000000000000000000000000000000002815260040180828152602001915050600060405180830381600087803b15801562000bd057600080fd5b505af115801562000be5573d6000803e3d6000fd5b50505050600160008781526020019081526020016000205492505b6000831115620010255760026001840381548110151562000c1d57fe5b9060005260206000200160009054906101000a900473ffffffffffffffffffffffffffffffffffffffff16915060028381548110151562000c5a57fe5b9060005260206000200160009054906101000a900473ffffffffffffffffffffffffffffffffffffffff1690508173ffffffffffffffffffffffffffffffffffffffff16631be6dd646040518163ffffffff167c0100000000000000000000000000000000000000000000000000000000028152600401602060405180830381600087803b15801562000cec57600080fd5b505af115801562000d01573d6000803e3d6000fd5b505050506040513d602081101562000d1857600080fd5b81019080805190602001909291905050508173ffffffffffffffffffffffffffffffffffffffff16631be6dd646040518163ffffffff167c0100000000000000000000000000000000000000000000000000000000028152600401602060405180830381600087803b15801562000d8e57600080fd5b505af115801562000da3573d6000803e3d6000fd5b505050506040513d602081101562000dba57600080fd5b810190808051906020019092919050505011156200101957818181915080905060028581548110151562000dea57fe5b90600052602060002001600060026001880381548110151562000e0957fe5b9060005260206000200160008491906101000a81548173ffffffffffffffffffffffffffffffffffffffff021916908373ffffffffffffffffffffffffffffffffffffffff1602179055508391906101000a81548173ffffffffffffffffffffffffffffffffffffffff021916908373ffffffffffffffffffffffffffffffffffffffff160217905550505082600160008473ffffffffffffffffffffffffffffffffffffffff1663af640d0f6040518163ffffffff167c0100000000000000000000000000000000000000000000000000000000028152600401602060405180830381600087803b15801562000eff57600080fd5b505af115801562000f14573d6000803e3d6000fd5b505050506040513d602081101562000f2b57600080fd5b810190808051906020019092919050505081526020019081526020016000208190555060018303600160008373ffffffffffffffffffffffffffffffffffffffff1663af640d0f6040518163ffffffff167c0100000000000000000000000000000000000000000000000000000000028152600401602060405180830381600087803b15801562000fbb57600080fd5b505af115801562000fd0573d6000803e3d6000fd5b505050506040513d602081101562000fe757600080fd5b81019080805190602001909291905050508152602001908152602001600020819055508280600190039350506200101f565b62001025565b62000c00565b8373ffffffffffffffffffffffffffffffffffffffff1663a6c3e6b96040518163ffffffff167c0100000000000000000000000000000000000000000000000000000000028152600401602060405180830381600087803b1580156200108a57600080fd5b505af11580156200109f573d6000803e3d6000fd5b505050506040513d6020811015620010b657600080fd5b810190808051906020019092919050505073ffffffffffffffffffffffffffffffffffffffff166108fc349081150290604051600060405180830381858888f193505050501580156200110d573d6000803e3d6000fd5b50505050505050565b60008060009054906101000a900460ff161515156200113457600080fd5b7f5f647542d821b2222eefeaa5213d4c6f27780a0bdfbe0bcee5294fba5d8509c960035433604051808381526020018273ffffffffffffffffffffffffffffffffffffffff1673ffffffffffffffffffffffffffffffffffffffff1681526020019250505060405180910390a1838383600354620011b1620013f7565b80806020018060200180602001858152602001848103845288818151815260200191508051906020019080838360005b83811015620011fe578082015181840152602081019050620011e1565b50505050905090810190601f1680156200122c5780820380516001836020036101000a031916815260200191505b50848103835287818151815260200191508051906020019080838360005b83811015620012675780820151818401526020810190506200124a565b50505050905090810190601f168015620012955780820380516001836020036101000a031916815260200191505b50848103825286818151815260200191508051906020019080838360005b83811015620012d0578082015181840152602081019050620012b3565b50505050905090810190601f168015620012fe5780820380516001836020036101000a031916815260200191505b50975050505050505050604051809103906000f08015801562001325573d6000803e3d6000fd5b50905060028190806001815401808255809150509060018203906000526020600020016000909192909190916101000a81548173ffffffffffffffffffffffffffffffffffffffff021916908373ffffffffffffffffffffffffffffffffffffffff160217905550506001600280549050036001600060035481526020019081526020016000208190555060036000815480929190600101919050555050505050565b815481835581811115620013f257818360005260206000209182019101620013f1919062001408565b5b505050565b604051610b4d806200143183390190565b6200142d91905b80821115620014295760008160009055506001016200140f565b5090565b905600608060405234801561001057600080fd5b50604051610b4d380380610b4d83398101806040528101908080518201929190602001805182019291906020018051820192919060200180519060200190929190505050836000908051906020019061006a929190610133565b508260019080519060200190610081929190610133565b508160029080519060200190610098929190610133565b5080600381905550600060048190555032600560006101000a81548173ffffffffffffffffffffffffffffffffffffffff021916908373ffffffffffffffffffffffffffffffffffffffff16021790555033600660006101000a81548173ffffffffffffffffffffffffffffffffffffffff021916908373ffffffffffffffffffffffffffffffffffffffff160217905550505050506101d8565b828054600181600116156101000203166002900490600052602060002090601f016020900481019282601f1061017457805160ff19168380011785556101a2565b828001600101855582156101a2579182015b828111156101a1578251825591602001919060010190610186565b5b5090506101af91906101b3565b5090565b6101d591905b808211156101d15760008160009055506001016101b9565b5090565b90565b610966806101e76000396000f300608060405260043610610099576000357c0100000000000000000000000000000000000000000000000000000000900463ffffffff1680631be6dd641461009e578063364497e4146100c95780634a79d50c146101595780636a64aabb146101e95780636fabead91461027957806383197ef014610328578063a6c3e6b91461033f578063af640d0f14610396578063ec859db5146103c1575b600080fd5b3480156100aa57600080fd5b506100b36103ee565b6040518082815260200191505060405180910390f35b3480156100d557600080fd5b506100de6103f4565b6040518080602001828103825283818151815260200191508051906020019080838360005b8381101561011e578082015181840152602081019050610103565b50505050905090810190601f16801561014b5780820380516001836020036101000a031916815260200191505b509250505060405180910390f35b34801561016557600080fd5b5061016e610492565b6040518080602001828103825283818151815260200191508051906020019080838360005b838110156101ae578082015181840152602081019050610193565b50505050905090810190601f1680156101db5780820380516001836020036101000a031916815260200191505b509250505060405180910390f35b3480156101f557600080fd5b506101fe610530565b6040518080602001828103825283818151815260200191508051906020019080838360005b8381101561023e578082015181840152602081019050610223565b50505050905090810190601f16801561026b5780820380516001836020036101000a031916815260200191505b509250505060405180910390f35b34801561028557600080fd5b50610326600480360381019080803590602001908201803590602001908080601f0160208091040260200160405190810160405280939291908181526020018383808284378201915050505050509192919290803590602001908201803590602001908080601f01602080910402602001604051908101604052809392919081815260200183838082843782019150505050505091929192905050506105ce565b005b34801561033457600080fd5b5061033d610695565b005b34801561034b57600080fd5b506103546107c1565b604051808273ffffffffffffffffffffffffffffffffffffffff1673ffffffffffffffffffffffffffffffffffffffff16815260200191505060405180910390f35b3480156103a257600080fd5b506103ab6107e7565b6040518082815260200191505060405180910390f35b3480156103cd57600080fd5b506103ec600480360381019080803590602001909291905050506107ed565b005b60045481565b60018054600181600116156101000203166002900480601f01602080910402602001604051908101604052809291908181526020018280546001816001161561010002031660029004801561048a5780601f1061045f5761010080835404028352916020019161048a565b820191906000526020600020905b81548152906001019060200180831161046d57829003601f168201915b505050505081565b60008054600181600116156101000203166002900480601f0160208091040260200160405190810160405280929190818152602001828054600181600116156101000203166002900480156105285780601f106104fd57610100808354040283529160200191610528565b820191906000526020600020905b81548152906001019060200180831161050b57829003601f168201915b505050505081565b60028054600181600116156101000203166002900480601f0160208091040260200160405190810160405280929190818152602001828054600181600116156101000203166002900480156105c65780601f1061059b576101008083540402835291602001916105c6565b820191906000526020600020905b8154815290600101906020018083116105a957829003601f168201915b505050505081565b600560009054906101000a900473ffffffffffffffffffffffffffffffffffffffff1673ffffffffffffffffffffffffffffffffffffffff163273ffffffffffffffffffffffffffffffffffffffff1614151561062a57600080fd5b8160009080519060200190610640929190610895565b508060019080519060200190610657929190610895565b507fbbfad2564388b088ee5992e661e509567fb0d8a35a9f8c410032374b57f0169a6003546040518082815260200191505060405180910390a15050565b600560009054906101000a900473ffffffffffffffffffffffffffffffffffffffff1673ffffffffffffffffffffffffffffffffffffffff163273ffffffffffffffffffffffffffffffffffffffff161415156106f157600080fd5b600660009054906101000a900473ffffffffffffffffffffffffffffffffffffffff1673ffffffffffffffffffffffffffffffffffffffff163373ffffffffffffffffffffffffffffffffffffffff1614151561074d57600080fd5b7f3f20f7f8d003d03819949ccf51a3e83de9cece583360970bfd1824d5ebcc01536003546040518082815260200191505060405180910390a1600560009054906101000a900473ffffffffffffffffffffffffffffffffffffffff1673ffffffffffffffffffffffffffffffffffffffff16ff5b600560009054906101000a900473ffffffffffffffffffffffffffffffffffffffff1681565b60035481565b600660009054906101000a900473ffffffffffffffffffffffffffffffffffffffff1673ffffffffffffffffffffffffffffffffffffffff163373ffffffffffffffffffffffffffffffffffffffff1614151561084957600080fd5b7fbbfad2564388b088ee5992e661e509567fb0d8a35a9f8c410032374b57f0169a6003546040518082815260200191505060405180910390a18060046000828254019250508190555050565b828054600181600116156101000203166002900490600052602060002090601f016020900481019282601f106108d657805160ff1916838001178555610904565b82800160010185558215610904579182015b828111156109035782518255916020019190600101906108e8565b5b5090506109119190610915565b5090565b61093791905b8082111561093357600081600090555060010161091b565b5090565b905600a165627a7a72305820f692d824e9b73530ad9cf4ba96b62faabea9201682977514a09f6dc99dcd6c100029a165627a7a723058209200657bc5a603bcda49b22f2907e0bae3f0226edb890b4306167310c7fe70d90029",
  "source": "pragma solidity ^0.4.24;\n\nimport \"./Article.sol\";\n\ncontract Medium {\n  // CONTRACT VARIABLES\n  // circuit breaker\n  bool public stopped = false;\n  // article addresses\n  mapping (uint => uint) public articleIdIndex;\n  address[] public articleAddressesByPoints;\n  // next article ID\n  uint nextId = 0;\n  // admins\n  mapping (address => bool) private admins;\n\n  // EVENTS\n  event posted(uint articleId, address author);\n\n  // MODIFIERS\n  // circuit breaker\n  modifier stopInEmergency { require(!stopped); _; }\n  modifier onlyInEmergency { require(stopped); _; }\n  // require admin access\n  modifier adminOnly { require(admins[msg.sender]); _; }\n  // require article owner\n  modifier authorOnly(uint id) {\n    Article article = Article(getArticleFromId(id));\n    require(article.author() == msg.sender);\n    _;\n  }\n\n  // CONSTRUCTOR\n  constructor() public {\n    admins[msg.sender] = true;\n  }\n\n  // FUNCTIONS\n  function getArticleFromId(uint id) public view returns(address) {\n    return articleAddressesByPoints[articleIdIndex[id]];\n  }\n\n  function getNArticleAddresses(uint n) public view returns(address[]) {\n    uint size = n > articleAddressesByPoints.length ? articleAddressesByPoints.length : n;\n    address[] memory articleIds = new address[](size);\n    for (uint i=0; i<size; i++) {\n      articleIds[i] = articleAddressesByPoints[i];\n    }\n    return articleIds;\n  }\n\n  function getArticleAddresses() public view returns(address[]) {\n    return articleAddressesByPoints;\n  }\n\n  function post(string title, string body, string authorName) public stopInEmergency {\n    emit posted(nextId, msg.sender);\n    // create new article\n    address newArticle = new Article(title, body, authorName, nextId);\n    // add article to end of list by points (it should have 0 points)\n    articleAddressesByPoints.push(newArticle);\n    // add id and index to mapping for O(1) lookup\n    articleIdIndex[nextId] = articleAddressesByPoints.length - 1;\n    // increment nextId for next post\n    nextId++;\n  }\n\n  function upVote(uint id) public payable stopInEmergency {\n    // calculate article points based on price\n    uint points = msg.value / 10000000000000000;\n    Article article = Article(getArticleFromId(id));\n    article.upVote(points);\n    // rearrange articleAddressesByPoints\n    uint idx = articleIdIndex[id];\n    Article leftArticle;\n    Article rightArticle;\n    while(idx > 0) {\n      leftArticle = Article(articleAddressesByPoints[idx - 1]);\n      rightArticle = Article(articleAddressesByPoints[idx]);\n      if(rightArticle.points() > leftArticle.points()) {\n        (articleAddressesByPoints[idx], articleAddressesByPoints[idx - 1]) = (leftArticle, rightArticle);\n        articleIdIndex[leftArticle.id()] = idx;\n        articleIdIndex[rightArticle.id()] = idx - 1;\n        idx--;\n      } else {\n        break;\n      }\n    }\n    // pay author\n    article.author().transfer(msg.value);\n  }\n\n  function deleteArticle(uint id) public authorOnly(id) {\n    // delete contract\n    Article article = Article(getArticleFromId(id));\n    article.destroy();\n    // remove contract from id list\n    delete articleAddressesByPoints[articleIdIndex[id]];\n    for (uint i = articleIdIndex[id] + 1; i<articleAddressesByPoints.length; i++) {\n      // shift ids down in array\n      articleAddressesByPoints[i-1] = articleAddressesByPoints[i];\n    }\n    // shorten articleAddressesByPoints\n    articleAddressesByPoints.length--;\n    // remove id from mapping\n    delete articleIdIndex[id];\n  }\n\n  function addAdmin(address newAdmin) public adminOnly {\n    admins[newAdmin] = true;\n  }\n\n  function setBreaker(bool _stopped) public adminOnly {\n    stopped = _stopped;\n  }\n}\n",
  "sourcePath": "/home/ryan/Projects/decentralized_medium/contracts/Medium.sol",
  "compiler": {
    "name": "solc",
    "version": "0.4.24+commit.e67f0147.Emscripten.clang"
  },
  "schemaVersion": "2.0.1",
  "updatedAt": "2018-08-27T06:48:53.689Z"
}