{
  "contractName": "Medium",
  "abi": [
    {
      "constant": true,
      "inputs": [
        {
          "name": "",
          "type": "uint256"
        }
      ],
      "name": "articleIds",
      "outputs": [
        {
          "name": "",
          "type": "uint256"
        }
      ],
      "payable": false,
      "stateMutability": "view",
      "type": "function"
    },
    {
      "constant": true,
      "inputs": [
        {
          "name": "",
          "type": "uint256"
        }
      ],
      "name": "articleAddresses",
      "outputs": [
        {
          "name": "",
          "type": "address"
        }
      ],
      "payable": false,
      "stateMutability": "view",
      "type": "function"
    },
    {
      "constant": false,
      "inputs": [
        {
          "name": "title",
          "type": "string"
        },
        {
          "name": "body",
          "type": "string"
        }
      ],
      "name": "post",
      "outputs": [
        {
          "name": "",
          "type": "address"
        }
      ],
      "payable": false,
      "stateMutability": "nonpayable",
      "type": "function"
    },
    {
      "constant": true,
      "inputs": [],
      "name": "getArticleIds",
      "outputs": [
        {
          "name": "",
          "type": "uint256[]"
        }
      ],
      "payable": false,
      "stateMutability": "view",
      "type": "function"
    }
  ],
  "bytecode": "0x6080604052600160025534801561001557600080fd5b506109c6806100256000396000f300608060405260043610610062576000357c0100000000000000000000000000000000000000000000000000000000900463ffffffff1680630ae1b13d146100675780632de6f5b514610156578063e7ff523014610197578063f461871e14610204575b600080fd5b34801561007357600080fd5b50610114600480360381019080803590602001908201803590602001908080601f0160208091040260200160405190810160405280939291908181526020018383808284378201915050505050509192919290803590602001908201803590602001908080601f0160208091040260200160405190810160405280939291908181526020018383808284378201915050505050509192919290505050610270565b604051808273ffffffffffffffffffffffffffffffffffffffff1673ffffffffffffffffffffffffffffffffffffffff16815260200191505060405180910390f35b34801561016257600080fd5b5061018160048036038101908080359060200190929190505050610414565b6040518082815260200191505060405180910390f35b3480156101a357600080fd5b506101c260048036038101908080359060200190929190505050610437565b604051808273ffffffffffffffffffffffffffffffffffffffff1673ffffffffffffffffffffffffffffffffffffffff16815260200191505060405180910390f35b34801561021057600080fd5b5061021961046a565b6040518080602001828103825283818151815260200191508051906020019060200280838360005b8381101561025c578082015181840152602081019050610241565b505050509050019250505060405180910390f35b600080838361027d6104c2565b808060200180602001838103835285818151815260200191508051906020019080838360005b838110156102be5780820151818401526020810190506102a3565b50505050905090810190601f1680156102eb5780820380516001836020036101000a031916815260200191505b50838103825284818151815260200191508051906020019080838360005b83811015610324578082015181840152602081019050610309565b50505050905090810190601f1680156103515780820380516001836020036101000a031916815260200191505b50945050505050604051809103906000f080158015610374573d6000803e3d6000fd5b50905080600080600254815260200190815260200160002060006101000a81548173ffffffffffffffffffffffffffffffffffffffff021916908373ffffffffffffffffffffffffffffffffffffffff160217905550600160025490806001815401808255809150509060018203906000526020600020016000909192909190915055506002600081548092919060010191905055508091505092915050565b60018181548110151561042357fe5b906000526020600020016000915090505481565b60006020528060005260406000206000915054906101000a900473ffffffffffffffffffffffffffffffffffffffff1681565b606060018054806020026020016040519081016040528092919081815260200182805480156104b857602002820191906000526020600020905b8154815260200190600101908083116104a4575b5050505050905090565b6040516104c8806104d3833901905600608060405234801561001057600080fd5b506040516104c83803806104c8833981018060405281019080805182019291906020018051820192919050505081600090805190602001906100539291906100b3565b50806001908051906020019061006a9291906100b3565b5033600260006101000a81548173ffffffffffffffffffffffffffffffffffffffff021916908373ffffffffffffffffffffffffffffffffffffffff1602179055505050610158565b828054600181600116156101000203166002900490600052602060002090601f016020900481019282601f106100f457805160ff1916838001178555610122565b82800160010185558215610122579182015b82811115610121578251825591602001919060010190610106565b5b50905061012f9190610133565b5090565b61015591905b80821115610151576000816000905550600101610139565b5090565b90565b610361806101676000396000f300608060405260043610610057576000357c0100000000000000000000000000000000000000000000000000000000900463ffffffff168063364497e41461005c5780634a79d50c146100ec578063a6c3e6b91461017c575b600080fd5b34801561006857600080fd5b506100716101d3565b6040518080602001828103825283818151815260200191508051906020019080838360005b838110156100b1578082015181840152602081019050610096565b50505050905090810190601f1680156100de5780820380516001836020036101000a031916815260200191505b509250505060405180910390f35b3480156100f857600080fd5b50610101610271565b6040518080602001828103825283818151815260200191508051906020019080838360005b83811015610141578082015181840152602081019050610126565b50505050905090810190601f16801561016e5780820380516001836020036101000a031916815260200191505b509250505060405180910390f35b34801561018857600080fd5b5061019161030f565b604051808273ffffffffffffffffffffffffffffffffffffffff1673ffffffffffffffffffffffffffffffffffffffff16815260200191505060405180910390f35b60018054600181600116156101000203166002900480601f0160208091040260200160405190810160405280929190818152602001828054600181600116156101000203166002900480156102695780601f1061023e57610100808354040283529160200191610269565b820191906000526020600020905b81548152906001019060200180831161024c57829003601f168201915b505050505081565b60008054600181600116156101000203166002900480601f0160208091040260200160405190810160405280929190818152602001828054600181600116156101000203166002900480156103075780601f106102dc57610100808354040283529160200191610307565b820191906000526020600020905b8154815290600101906020018083116102ea57829003601f168201915b505050505081565b600260009054906101000a900473ffffffffffffffffffffffffffffffffffffffff16815600a165627a7a723058205d22b526c8e1e800cc946556429da0b1255a11da9f4b7c063f3eec51a0b8a1830029a165627a7a72305820b4df82042a73e112eccac07071b10823d89291a7ffc92722d15a31c49e50b69c0029",
  "source": "pragma solidity ^0.4.24;\n\nimport \"./Article.sol\";\n\ncontract Medium {\n  mapping (uint => address) public articleAddresses;\n  uint[] public articleIds;\n  uint nextId = 1;\n\n  function post(string title, string body) public returns(address) {\n    address newArticle = new Article(title, body);\n    articleAddresses[nextId] = address(newArticle);\n    articleIds.push(nextId);\n    nextId++;\n    return(newArticle);\n  }\n\n  function getArticleIds() view returns(uint[]) {\n    return articleIds;\n  }\n}\n",
  "sourcePath": "/home/ryan/Projects/decentralized_medium/contracts/Medium.sol",
  "compiler": {
    "name": "solc",
    "version": "0.4.24+commit.e67f0147.Emscripten.clang"
  },
  "schemaVersion": "2.0.1",
  "updatedAt": "2018-08-19T20:45:48.992Z"
}