{
  "contractName": "Medium",
  "abi": [
    {
      "constant": true,
      "inputs": [
        {
          "name": "",
          "type": "uint256"
        }
      ],
      "name": "articleAddressesByPoints",
      "outputs": [
        {
          "name": "",
          "type": "address"
        }
      ],
      "payable": false,
      "stateMutability": "view",
      "type": "function"
    },
    {
      "constant": true,
      "inputs": [],
      "name": "stopped",
      "outputs": [
        {
          "name": "",
          "type": "bool"
        }
      ],
      "payable": false,
      "stateMutability": "view",
      "type": "function"
    },
    {
      "constant": true,
      "inputs": [
        {
          "name": "",
          "type": "uint256"
        }
      ],
      "name": "articleIdIndex",
      "outputs": [
        {
          "name": "",
          "type": "uint256"
        }
      ],
      "payable": false,
      "stateMutability": "view",
      "type": "function"
    },
    {
      "inputs": [],
      "payable": false,
      "stateMutability": "nonpayable",
      "type": "constructor"
    },
    {
      "anonymous": false,
      "inputs": [
        {
          "indexed": false,
          "name": "articleId",
          "type": "uint256"
        },
        {
          "indexed": false,
          "name": "author",
          "type": "address"
        }
      ],
      "name": "posted",
      "type": "event"
    },
    {
      "constant": true,
      "inputs": [
        {
          "name": "n",
          "type": "uint256"
        }
      ],
      "name": "getNArticleAddresses",
      "outputs": [
        {
          "name": "",
          "type": "address[]"
        }
      ],
      "payable": false,
      "stateMutability": "view",
      "type": "function"
    },
    {
      "constant": true,
      "inputs": [],
      "name": "getArticleAddresses",
      "outputs": [
        {
          "name": "",
          "type": "address[]"
        }
      ],
      "payable": false,
      "stateMutability": "view",
      "type": "function"
    },
    {
      "constant": false,
      "inputs": [
        {
          "name": "title",
          "type": "string"
        },
        {
          "name": "body",
          "type": "string"
        },
        {
          "name": "authorName",
          "type": "string"
        }
      ],
      "name": "post",
      "outputs": [],
      "payable": false,
      "stateMutability": "nonpayable",
      "type": "function"
    },
    {
      "constant": false,
      "inputs": [
        {
          "name": "id",
          "type": "uint256"
        }
      ],
      "name": "upVote",
      "outputs": [],
      "payable": true,
      "stateMutability": "payable",
      "type": "function"
    },
    {
      "constant": false,
      "inputs": [
        {
          "name": "id",
          "type": "uint256"
        }
      ],
      "name": "deleteArticle",
      "outputs": [],
      "payable": false,
      "stateMutability": "nonpayable",
      "type": "function"
    },
    {
      "constant": false,
      "inputs": [
        {
          "name": "newAdmin",
          "type": "address"
        }
      ],
      "name": "addAdmin",
      "outputs": [],
      "payable": false,
      "stateMutability": "nonpayable",
      "type": "function"
    },
    {
      "constant": false,
      "inputs": [
        {
          "name": "_stopped",
          "type": "bool"
        }
      ],
      "name": "setBreaker",
      "outputs": [],
      "payable": false,
      "stateMutability": "nonpayable",
      "type": "function"
    }
  ],
  "bytecode": "0x608060405260008060006101000a81548160ff021916908315150217905550600060035534801561002f57600080fd5b506001600460003373ffffffffffffffffffffffffffffffffffffffff1673ffffffffffffffffffffffffffffffffffffffff16815260200190815260200160002060006101000a81548160ff021916908315150217905550611ded806100976000396000f3006080604052600436106100a4576000357c0100000000000000000000000000000000000000000000000000000000900463ffffffff16806328e5725a146100a9578063496f00e514610115578063498de8b3146101975780634b77aefd146101c45780635c0aeb0e14610231578063704802751461026057806375f12b21146102a3578063c62de41c146102d2578063ec859db514610313578063eca94dec14610333575b600080fd5b3480156100b557600080fd5b506100be610428565b6040518080602001828103825283818151815260200191508051906020019060200280838360005b838110156101015780820151818401526020810190506100e6565b505050509050019250505060405180910390f35b34801561012157600080fd5b50610140600480360381019080803590602001909291905050506104b6565b6040518080602001828103825283818151815260200191508051906020019060200280838360005b83811015610183578082015181840152602081019050610168565b505050509050019250505060405180910390f35b3480156101a357600080fd5b506101c2600480360381019080803590602001909291905050506105b4565b005b3480156101d057600080fd5b506101ef600480360381019080803590602001909291905050506108d0565b604051808273ffffffffffffffffffffffffffffffffffffffff1673ffffffffffffffffffffffffffffffffffffffff16815260200191505060405180910390f35b34801561023d57600080fd5b5061025e60048036038101908080351515906020019092919050505061090e565b005b34801561026c57600080fd5b506102a1600480360381019080803573ffffffffffffffffffffffffffffffffffffffff169060200190929190505050610982565b005b3480156102af57600080fd5b506102b8610a35565b604051808215151515815260200191505060405180910390f35b3480156102de57600080fd5b506102fd60048036038101908080359060200190929190505050610a47565b6040518082815260200191505060405180910390f35b61033160048036038101908080359060200190929190505050610a5f565b005b34801561033f57600080fd5b50610426600480360381019080803590602001908201803590602001908080601f0160208091040260200160405190810160405280939291908181526020018383808284378201915050505050509192919290803590602001908201803590602001908080601f0160208091040260200160405190810160405280939291908181526020018383808284378201915050505050509192919290803590602001908201803590602001908080601f0160208091040260200160405190810160405280939291908181526020018383808284378201915050505050509192919290505050610f6e565b005b606060028054806020026020016040519081016040528092919081815260200182805480156104ac57602002820191906000526020600020905b8160009054906101000a900473ffffffffffffffffffffffffffffffffffffffff1673ffffffffffffffffffffffffffffffffffffffff1681526020019060010190808311610462575b5050505050905090565b606060006060600060028054905085116104d057846104d7565b6002805490505b9250826040519080825280602002602001820160405280156105085781602001602082028038833980820191505090505b509150600090505b828110156105a95760028181548110151561052757fe5b9060005260206000200160009054906101000a900473ffffffffffffffffffffffffffffffffffffffff16828281518110151561056057fe5b9060200190602002019073ffffffffffffffffffffffffffffffffffffffff16908173ffffffffffffffffffffffffffffffffffffffff16815250508080600101915050610510565b819350505050919050565b6000808260006002828154811015156105c957fe5b9060005260206000200160009054906101000a900473ffffffffffffffffffffffffffffffffffffffff1690503373ffffffffffffffffffffffffffffffffffffffff168173ffffffffffffffffffffffffffffffffffffffff1663a6c3e6b96040518163ffffffff167c0100000000000000000000000000000000000000000000000000000000028152600401602060405180830381600087803b15801561067157600080fd5b505af1158015610685573d6000803e3d6000fd5b505050506040513d602081101561069b57600080fd5b810190808051906020019092919050505073ffffffffffffffffffffffffffffffffffffffff161415156106ce57600080fd5b6002858154811015156106dd57fe5b9060005260206000200160009054906101000a900473ffffffffffffffffffffffffffffffffffffffff1693508373ffffffffffffffffffffffffffffffffffffffff166383197ef06040518163ffffffff167c0100000000000000000000000000000000000000000000000000000000028152600401600060405180830381600087803b15801561076e57600080fd5b505af1158015610782573d6000803e3d6000fd5b50505050600260016000878152602001908152602001600020548154811015156107a857fe5b9060005260206000200160006101000a81549073ffffffffffffffffffffffffffffffffffffffff02191690556001806000878152602001908152602001600020540192505b60028054905083101561089c5760028381548110151561080a57fe5b9060005260206000200160009054906101000a900473ffffffffffffffffffffffffffffffffffffffff1660026001850381548110151561084757fe5b9060005260206000200160006101000a81548173ffffffffffffffffffffffffffffffffffffffff021916908373ffffffffffffffffffffffffffffffffffffffff16021790555082806001019350506107ee565b60028054809190600190036108b19190611213565b5060016000868152602001908152602001600020600090555050505050565b6002818154811015156108df57fe5b906000526020600020016000915054906101000a900473ffffffffffffffffffffffffffffffffffffffff1681565b600460003373ffffffffffffffffffffffffffffffffffffffff1673ffffffffffffffffffffffffffffffffffffffff16815260200190815260200160002060009054906101000a900460ff16151561096657600080fd5b806000806101000a81548160ff02191690831515021790555050565b600460003373ffffffffffffffffffffffffffffffffffffffff1673ffffffffffffffffffffffffffffffffffffffff16815260200190815260200160002060009054906101000a900460ff1615156109da57600080fd5b6001600460008373ffffffffffffffffffffffffffffffffffffffff1673ffffffffffffffffffffffffffffffffffffffff16815260200190815260200160002060006101000a81548160ff02191690831515021790555050565b6000809054906101000a900460ff1681565b60016020528060005260406000206000915090505481565b60008060008060008060009054906101000a900460ff16151515610a8257600080fd5b662386f26fc1000034811515610a9457fe5b049450600286815481101515610aa657fe5b9060005260206000200160009054906101000a900473ffffffffffffffffffffffffffffffffffffffff1693508373ffffffffffffffffffffffffffffffffffffffff1663ec859db5866040518263ffffffff167c010000000000000000000000000000000000000000000000000000000002815260040180828152602001915050600060405180830381600087803b158015610b4257600080fd5b505af1158015610b56573d6000803e3d6000fd5b50505050600160008781526020019081526020016000205492505b6000831115610e8157600260018403815481101515610b8c57fe5b9060005260206000200160009054906101000a900473ffffffffffffffffffffffffffffffffffffffff169150600283815481101515610bc857fe5b9060005260206000200160009054906101000a900473ffffffffffffffffffffffffffffffffffffffff1690508173ffffffffffffffffffffffffffffffffffffffff16631be6dd646040518163ffffffff167c0100000000000000000000000000000000000000000000000000000000028152600401602060405180830381600087803b158015610c5957600080fd5b505af1158015610c6d573d6000803e3d6000fd5b505050506040513d6020811015610c8357600080fd5b81019080805190602001909291905050508173ffffffffffffffffffffffffffffffffffffffff16631be6dd646040518163ffffffff167c0100000000000000000000000000000000000000000000000000000000028152600401602060405180830381600087803b158015610cf857600080fd5b505af1158015610d0c573d6000803e3d6000fd5b505050506040513d6020811015610d2257600080fd5b81019080805190602001909291905050501115610e7757600260018403815481101515610d4b57fe5b9060005260206000200160009054906101000a900473ffffffffffffffffffffffffffffffffffffffff16600284815481101515610d8557fe5b9060005260206000200160009054906101000a900473ffffffffffffffffffffffffffffffffffffffff16600285815481101515610dbf57fe5b906000526020600020016000600260018803815481101515610ddd57fe5b9060005260206000200160008491906101000a81548173ffffffffffffffffffffffffffffffffffffffff021916908373ffffffffffffffffffffffffffffffffffffffff1602179055508391906101000a81548173ffffffffffffffffffffffffffffffffffffffff021916908373ffffffffffffffffffffffffffffffffffffffff1602179055505050828060019003935050610e7c565b610e81565b610b71565b8373ffffffffffffffffffffffffffffffffffffffff1663a6c3e6b96040518163ffffffff167c0100000000000000000000000000000000000000000000000000000000028152600401602060405180830381600087803b158015610ee557600080fd5b505af1158015610ef9573d6000803e3d6000fd5b505050506040513d6020811015610f0f57600080fd5b810190808051906020019092919050505073ffffffffffffffffffffffffffffffffffffffff166108fc349081150290604051600060405180830381858888f19350505050158015610f65573d6000803e3d6000fd5b50505050505050565b60008060009054906101000a900460ff16151515610f8b57600080fd5b7f5f647542d821b2222eefeaa5213d4c6f27780a0bdfbe0bcee5294fba5d8509c960035433604051808381526020018273ffffffffffffffffffffffffffffffffffffffff1673ffffffffffffffffffffffffffffffffffffffff1681526020019250505060405180910390a183838360035461100661123f565b80806020018060200180602001858152602001848103845288818151815260200191508051906020019080838360005b83811015611051578082015181840152602081019050611036565b50505050905090810190601f16801561107e5780820380516001836020036101000a031916815260200191505b50848103835287818151815260200191508051906020019080838360005b838110156110b757808201518184015260208101905061109c565b50505050905090810190601f1680156110e45780820380516001836020036101000a031916815260200191505b50848103825286818151815260200191508051906020019080838360005b8381101561111d578082015181840152602081019050611102565b50505050905090810190601f16801561114a5780820380516001836020036101000a031916815260200191505b50975050505050505050604051809103906000f080158015611170573d6000803e3d6000fd5b50905060028190806001815401808255809150509060018203906000526020600020016000909192909190916101000a81548173ffffffffffffffffffffffffffffffffffffffff021916908373ffffffffffffffffffffffffffffffffffffffff160217905550506001600280549050036001600060035481526020019081526020016000208190555060036000815480929190600101919050555050505050565b81548183558181111561123a57818360005260206000209182019101611239919061124f565b5b505050565b604051610b4d8061127583390190565b61127191905b8082111561126d576000816000905550600101611255565b5090565b905600608060405234801561001057600080fd5b50604051610b4d380380610b4d83398101806040528101908080518201929190602001805182019291906020018051820192919060200180519060200190929190505050836000908051906020019061006a929190610133565b508260019080519060200190610081929190610133565b508160029080519060200190610098929190610133565b5080600381905550600060048190555032600560006101000a81548173ffffffffffffffffffffffffffffffffffffffff021916908373ffffffffffffffffffffffffffffffffffffffff16021790555033600660006101000a81548173ffffffffffffffffffffffffffffffffffffffff021916908373ffffffffffffffffffffffffffffffffffffffff160217905550505050506101d8565b828054600181600116156101000203166002900490600052602060002090601f016020900481019282601f1061017457805160ff19168380011785556101a2565b828001600101855582156101a2579182015b828111156101a1578251825591602001919060010190610186565b5b5090506101af91906101b3565b5090565b6101d591905b808211156101d15760008160009055506001016101b9565b5090565b90565b610966806101e76000396000f300608060405260043610610099576000357c0100000000000000000000000000000000000000000000000000000000900463ffffffff1680631be6dd641461009e578063364497e4146100c95780634a79d50c146101595780636a64aabb146101e95780636fabead91461027957806383197ef014610328578063a6c3e6b91461033f578063af640d0f14610396578063ec859db5146103c1575b600080fd5b3480156100aa57600080fd5b506100b36103ee565b6040518082815260200191505060405180910390f35b3480156100d557600080fd5b506100de6103f4565b6040518080602001828103825283818151815260200191508051906020019080838360005b8381101561011e578082015181840152602081019050610103565b50505050905090810190601f16801561014b5780820380516001836020036101000a031916815260200191505b509250505060405180910390f35b34801561016557600080fd5b5061016e610492565b6040518080602001828103825283818151815260200191508051906020019080838360005b838110156101ae578082015181840152602081019050610193565b50505050905090810190601f1680156101db5780820380516001836020036101000a031916815260200191505b509250505060405180910390f35b3480156101f557600080fd5b506101fe610530565b6040518080602001828103825283818151815260200191508051906020019080838360005b8381101561023e578082015181840152602081019050610223565b50505050905090810190601f16801561026b5780820380516001836020036101000a031916815260200191505b509250505060405180910390f35b34801561028557600080fd5b50610326600480360381019080803590602001908201803590602001908080601f0160208091040260200160405190810160405280939291908181526020018383808284378201915050505050509192919290803590602001908201803590602001908080601f01602080910402602001604051908101604052809392919081815260200183838082843782019150505050505091929192905050506105ce565b005b34801561033457600080fd5b5061033d610695565b005b34801561034b57600080fd5b506103546107c1565b604051808273ffffffffffffffffffffffffffffffffffffffff1673ffffffffffffffffffffffffffffffffffffffff16815260200191505060405180910390f35b3480156103a257600080fd5b506103ab6107e7565b6040518082815260200191505060405180910390f35b3480156103cd57600080fd5b506103ec600480360381019080803590602001909291905050506107ed565b005b60045481565b60018054600181600116156101000203166002900480601f01602080910402602001604051908101604052809291908181526020018280546001816001161561010002031660029004801561048a5780601f1061045f5761010080835404028352916020019161048a565b820191906000526020600020905b81548152906001019060200180831161046d57829003601f168201915b505050505081565b60008054600181600116156101000203166002900480601f0160208091040260200160405190810160405280929190818152602001828054600181600116156101000203166002900480156105285780601f106104fd57610100808354040283529160200191610528565b820191906000526020600020905b81548152906001019060200180831161050b57829003601f168201915b505050505081565b60028054600181600116156101000203166002900480601f0160208091040260200160405190810160405280929190818152602001828054600181600116156101000203166002900480156105c65780601f1061059b576101008083540402835291602001916105c6565b820191906000526020600020905b8154815290600101906020018083116105a957829003601f168201915b505050505081565b600560009054906101000a900473ffffffffffffffffffffffffffffffffffffffff1673ffffffffffffffffffffffffffffffffffffffff163273ffffffffffffffffffffffffffffffffffffffff1614151561062a57600080fd5b8160009080519060200190610640929190610895565b508060019080519060200190610657929190610895565b507fbbfad2564388b088ee5992e661e509567fb0d8a35a9f8c410032374b57f0169a6003546040518082815260200191505060405180910390a15050565b600560009054906101000a900473ffffffffffffffffffffffffffffffffffffffff1673ffffffffffffffffffffffffffffffffffffffff163273ffffffffffffffffffffffffffffffffffffffff161415156106f157600080fd5b600660009054906101000a900473ffffffffffffffffffffffffffffffffffffffff1673ffffffffffffffffffffffffffffffffffffffff163373ffffffffffffffffffffffffffffffffffffffff1614151561074d57600080fd5b7f3f20f7f8d003d03819949ccf51a3e83de9cece583360970bfd1824d5ebcc01536003546040518082815260200191505060405180910390a1600560009054906101000a900473ffffffffffffffffffffffffffffffffffffffff1673ffffffffffffffffffffffffffffffffffffffff16ff5b600560009054906101000a900473ffffffffffffffffffffffffffffffffffffffff1681565b60035481565b600660009054906101000a900473ffffffffffffffffffffffffffffffffffffffff1673ffffffffffffffffffffffffffffffffffffffff163373ffffffffffffffffffffffffffffffffffffffff1614151561084957600080fd5b7fbbfad2564388b088ee5992e661e509567fb0d8a35a9f8c410032374b57f0169a6003546040518082815260200191505060405180910390a18060046000828254019250508190555050565b828054600181600116156101000203166002900490600052602060002090601f016020900481019282601f106108d657805160ff1916838001178555610904565b82800160010185558215610904579182015b828111156109035782518255916020019190600101906108e8565b5b5090506109119190610915565b5090565b61093791905b8082111561093357600081600090555060010161091b565b5090565b905600a165627a7a723058205b30e15041380f51886810aa26eceb82bd07c7358d5c920cecb2ccaee8e333550029a165627a7a72305820c213063d0f935a38eb1c411ab9fa90af9a5cd48e9b7f57b45504e29d24fa14350029",
  "source": "pragma solidity ^0.4.24;\n\nimport \"./Article.sol\";\n\ncontract Medium {\n  // CONTRACT VARIABLES\n  // circuit breaker\n  bool public stopped = false;\n  // article addresses\n  mapping (uint => uint) public articleIdIndex;\n  address[] public articleAddressesByPoints;\n  // next article ID\n  uint nextId = 0;\n  // admins\n  mapping (address => bool) private admins;\n\n  // EVENTS\n  event posted(uint articleId, address author);\n\n  // MODIFIERS\n  // circuit breaker\n  modifier stopInEmergency { require(!stopped); _; }\n  modifier onlyInEmergency { require(stopped); _; }\n  // require admin access\n  modifier adminOnly { require(admins[msg.sender]); _; }\n  // require article owner\n  modifier authorOnly(uint id) {\n    Article article = Article(articleAddressesByPoints[id]);\n    require(article.author() == msg.sender);\n    _;\n  }\n\n  // CONSTRUCTOR\n  constructor() public {\n    admins[msg.sender] = true;\n  }\n\n  // FUNCTIONS\n  function getNArticleAddresses(uint n) public view returns(address[]) {\n    uint size = n > articleAddressesByPoints.length ? articleAddressesByPoints.length : n;\n    address[] memory articleIds = new address[](size);\n    for (uint i=0; i<size; i++) {\n      articleIds[i] = articleAddressesByPoints[i];\n    }\n    return articleIds;\n  }\n\n  function getArticleAddresses() public view returns(address[]) {\n    return articleAddressesByPoints;\n  }\n\n  function post(string title, string body, string authorName) public stopInEmergency {\n    emit posted(nextId, msg.sender);\n    // create new article\n    address newArticle = new Article(title, body, authorName, nextId);\n    // add article to end of list by points (it should have 0 points)\n    articleAddressesByPoints.push(newArticle);\n    // add id and index to mapping for O(1) lookup\n    articleIdIndex[nextId] = articleAddressesByPoints.length - 1;\n    // increment nextId for next post\n    nextId++;\n  }\n\n  function upVote(uint id) public payable stopInEmergency {\n    // calculate article points based on price\n    uint points = msg.value / 10000000000000000;\n    Article article = Article(articleAddressesByPoints[id]);\n    article.upVote(points);\n    // rearrange articleAddressesByPoints\n    uint idx = articleIdIndex[id];\n    Article leftArticle;\n    Article rightArticle;\n    while(idx > 0) {\n      leftArticle = Article(articleAddressesByPoints[idx - 1]);\n      rightArticle = Article(articleAddressesByPoints[idx]);\n      if(rightArticle.points() > leftArticle.points()) {\n        (articleAddressesByPoints[idx], articleAddressesByPoints[idx - 1]) = (articleAddressesByPoints[idx - 1], articleAddressesByPoints[idx]);\n        idx--;\n      } else {\n        break;\n      }\n    }\n    // pay author\n    article.author().transfer(msg.value);\n  }\n  \n  function deleteArticle(uint id) public authorOnly(id) {\n    // delete contract\n    Article article = Article(articleAddressesByPoints[id]);\n    article.destroy();\n    // remove contract from id list\n    delete articleAddressesByPoints[articleIdIndex[id]];\n    for (uint i = articleIdIndex[id] + 1; i<articleAddressesByPoints.length; i++) {\n      // shift ids down in array\n      articleAddressesByPoints[i-1] = articleAddressesByPoints[i];\n    }\n    // shorten articleAddressesByPoints\n    articleAddressesByPoints.length--;\n    // remove id from mapping\n    delete articleIdIndex[id];\n  }\n\n  function addAdmin(address newAdmin) public adminOnly {\n    admins[newAdmin] = true;\n  }\n\n  function setBreaker(bool _stopped) public adminOnly {\n    stopped = _stopped;\n  }\n}\n",
  "sourcePath": "/home/ryan/Projects/decentralized_medium/contracts/Medium.sol",
  "compiler": {
    "name": "solc",
    "version": "0.4.24+commit.e67f0147.Emscripten.clang"
  },
  "schemaVersion": "2.0.1",
  "updatedAt": "2018-08-26T22:25:24.289Z"
}